:10F000005542200135D0085A8245000231400003A4
:10F010003F4000000F9308249242000220012F83FA
:10F020009F4F2AF10002F8233F4000000F9307246E
:10F030009242000220011F83CF430002F923218264
:10F04000B240805A20018243000081430000814386
:10F0500002002E411F4102001F9305282F93172CF9
:10F060003E90A086142C034303432E411F4102000F
:10F070001E530F63814E0000814F02002E411F413D
:10F0800002001F93F02B03203E90A086EC2B9243AE
:10F09000000081430000814302002E411F41020015
:10F0A0003F90030005282F92CE2F3E90400DCB2F8E
:10F0B000034303432E411F4102001E530F63814E41
:10F0C0000000814F02002E411F4102003F900300CB
:10F0D000EF2BB9233E90400DEB2BB53F304022F192
:10F0E000218281430000814302002C411D41020026
:10F0F0000D9F04280F9D13280C9E112C03430343DE
:10F100002C411D4102001C530D63814C0000814DB8
:10F1100002002C411D4102000D9FF02BED272152D2
:0AF120003041001332D0F000FD3F33
:10FFE000DCF0DCF0DCF0DCF0DCF0DCF0DCF0DCF0B1
:10FFF000DCF0DCF0DCF0DCF0DCF0DCF0DCF000F07D
:040000030000F00009
:00000001FF
